{
	"data": {
		"bytecode": {
			"linkReferences": {},
			"object": "6080604052348015600e575f80fd5b50610f4d8061001c5f395ff3fe608060405234801561000f575f80fd5b50600436106100cd575f3560e01c80637284e4161161008a57806398d5fdca1161006457806398d5fdca146101db578063af640d0f146101f9578063c47f002714610217578063d0e0ba9514610233576100cd565b80637284e4161461018557806390c3f38f146101a357806391b7f5ed146101bf576100cd565b806306fdde03146100d157806317d7de7c146100ef5780631a0925411461010d578063469c50031461012b5780635d1ca631146101495780636ab55fd914610167575b5f80fd5b6100d961024f565b6040516100e69190610783565b60405180910390f35b6100f76102db565b6040516101049190610783565b60405180910390f35b61011561036b565b6040516101229190610783565b60405180910390f35b6101336103fb565b6040516101409190610783565b60405180910390f35b6101516104ae565b60405161015e91906107bb565b60405180910390f35b61016f6104b6565b60405161017c91906107bb565b60405180910390f35b61018d6104c2565b60405161019a9190610783565b60405180910390f35b6101bd60048036038101906101b89190610911565b61054e565b005b6101d960048036038101906101d49190610982565b610561565b005b6101e361056b565b6040516101f091906107bb565b60405180910390f35b610201610574565b60405161020e91906107bb565b60405180910390f35b610231600480360381019061022c9190610911565b610579565b005b61024d60048036038101906102489190610982565b61058c565b005b6001805461025c906109da565b80601f0160208091040260200160405190810160405280929190818152602001828054610288906109da565b80156102d35780601f106102aa576101008083540402835291602001916102d3565b820191905f5260205f20905b8154815290600101906020018083116102b657829003601f168201915b505050505081565b6060600180546102ea906109da565b80601f0160208091040260200160405190810160405280929190818152602001828054610316906109da565b80156103615780601f1061033857610100808354040283529160200191610361565b820191905f5260205f20905b81548152906001019060200180831161034457829003601f168201915b5050505050905090565b60606002805461037a906109da565b80601f01602080910402602001604051908101604052809291908181526020018280546103a6906109da565b80156103f15780601f106103c8576101008083540402835291602001916103f1565b820191905f5260205f20905b8154815290600101906020018083116103d457829003601f168201915b5050505050905090565b60605f606460035461040d9190610a64565b90505f606460035461041f9190610a94565b905061042a82610595565b600a82106104465760405180602001604052805f81525061047d565b6040518060400160405280600181526020017f30000000000000000000000000000000000000000000000000000000000000008152505b61048683610595565b60405160200161049893929190610b48565b6040516020818303038152906040529250505090565b5f8054905090565b670de0b6b3a764000081565b600280546104cf906109da565b80601f01602080910402602001604051908101604052809291908181526020018280546104fb906109da565b80156105465780601f1061051d57610100808354040283529160200191610546565b820191905f5260205f20905b81548152906001019060200180831161052957829003601f168201915b505050505081565b806002908161055d9190610d20565b5050565b8060038190555050565b5f600354905090565b5f5481565b80600190816105889190610d20565b5050565b805f8190555050565b60605f82036105db576040518060400160405280600181526020017f3000000000000000000000000000000000000000000000000000000000000000815250905061070e565b5f8290505f5b5f821461060a5780806105f390610def565b915050600a826106039190610a64565b91506105e1565b5f8167ffffffffffffffff811115610625576106246107ed565b5b6040519080825280601f01601f1916602001820160405280156106575781602001600182028036833780820191505090505b5090505f8290505b5f8614610706576001816106739190610e36565b90505f600a80886106849190610a64565b61068e9190610e69565b876106999190610e36565b60306106a59190610eb6565b90505f8160f81b9050808484815181106106c2576106c1610eea565b5b60200101907effffffffffffffffffffffffffffffffffffffffffffffffffffffffffffff191690815f1a905350600a886106fd9190610a64565b9750505061065f565b819450505050505b919050565b5f81519050919050565b5f82825260208201905092915050565b8281835e5f83830152505050565b5f601f19601f8301169050919050565b5f61075582610713565b61075f818561071d565b935061076f81856020860161072d565b6107788161073b565b840191505092915050565b5f6020820190508181035f83015261079b818461074b565b905092915050565b5f819050919050565b6107b5816107a3565b82525050565b5f6020820190506107ce5f8301846107ac565b92915050565b5f604051905090565b5f80fd5b5f80fd5b5f80fd5b5f80fd5b7f4e487b71000000000000000000000000000000000000000000000000000000005f52604160045260245ffd5b6108238261073b565b810181811067ffffffffffffffff82111715610842576108416107ed565b5b80604052505050565b5f6108546107d4565b9050610860828261081a565b919050565b5f67ffffffffffffffff82111561087f5761087e6107ed565b5b6108888261073b565b9050602081019050919050565b828183375f83830152505050565b5f6108b56108b084610865565b61084b565b9050828152602081018484840111156108d1576108d06107e9565b5b6108dc848285610895565b509392505050565b5f82601f8301126108f8576108f76107e5565b5b81356109088482602086016108a3565b91505092915050565b5f60208284031215610926576109256107dd565b5b5f82013567ffffffffffffffff811115610943576109426107e1565b5b61094f848285016108e4565b91505092915050565b610961816107a3565b811461096b575f80fd5b50565b5f8135905061097c81610958565b92915050565b5f60208284031215610997576109966107dd565b5b5f6109a48482850161096e565b91505092915050565b7f4e487b71000000000000000000000000000000000000000000000000000000005f52602260045260245ffd5b5f60028204905060018216806109f157607f821691505b602082108103610a0457610a036109ad565b5b50919050565b7f4e487b71000000000000000000000000000000000000000000000000000000005f52601260045260245ffd5b7f4e487b71000000000000000000000000000000000000000000000000000000005f52601160045260245ffd5b5f610a6e826107a3565b9150610a79836107a3565b925082610a8957610a88610a0a565b5b828204905092915050565b5f610a9e826107a3565b9150610aa9836107a3565b925082610ab957610ab8610a0a565b5b828206905092915050565b5f81905092915050565b5f610ad882610713565b610ae28185610ac4565b9350610af281856020860161072d565b80840191505092915050565b7f2e000000000000000000000000000000000000000000000000000000000000005f82015250565b5f610b32600183610ac4565b9150610b3d82610afe565b600182019050919050565b5f610b538286610ace565b9150610b5e82610b26565b9150610b6a8285610ace565b9150610b768284610ace565b9150819050949350505050565b5f819050815f5260205f209050919050565b5f6020601f8301049050919050565b5f82821b905092915050565b5f60088302610bdf7fffffffffffffffffffffffffffffffffffffffffffffffffffffffffffffffff82610ba4565b610be98683610ba4565b95508019841693508086168417925050509392505050565b5f819050919050565b5f610c24610c1f610c1a846107a3565b610c01565b6107a3565b9050919050565b5f819050919050565b610c3d83610c0a565b610c51610c4982610c2b565b848454610bb0565b825550505050565b5f90565b610c65610c59565b610c70818484610c34565b505050565b5b81811015610c9357610c885f82610c5d565b600181019050610c76565b5050565b601f821115610cd857610ca981610b83565b610cb284610b95565b81016020851015610cc1578190505b610cd5610ccd85610b95565b830182610c75565b50505b505050565b5f82821c905092915050565b5f610cf85f1984600802610cdd565b1980831691505092915050565b5f610d108383610ce9565b9150826002028217905092915050565b610d2982610713565b67ffffffffffffffff811115610d4257610d416107ed565b5b610d4c82546109da565b610d57828285610c97565b5f60209050601f831160018114610d88575f8415610d76578287015190505b610d808582610d05565b865550610de7565b601f198416610d9686610b83565b5f5b82811015610dbd57848901518255600182019150602085019450602081019050610d98565b86831015610dda5784890151610dd6601f891682610ce9565b8355505b6001600288020188555050505b505050505050565b5f610df9826107a3565b91507fffffffffffffffffffffffffffffffffffffffffffffffffffffffffffffffff8203610e2b57610e2a610a37565b5b600182019050919050565b5f610e40826107a3565b9150610e4b836107a3565b9250828203905081811115610e6357610e62610a37565b5b92915050565b5f610e73826107a3565b9150610e7e836107a3565b9250828202610e8c816107a3565b91508282048414831517610ea357610ea2610a37565b5b5092915050565b5f60ff82169050919050565b5f610ec082610eaa565b9150610ecb83610eaa565b9250828201905060ff811115610ee457610ee3610a37565b5b92915050565b7f4e487b71000000000000000000000000000000000000000000000000000000005f52603260045260245ffdfea2646970667358221220f15f093ba0a9ae7fb4f08e9bbb0fa76f0f6aeb6f275bb834d4348ab564dddbf164736f6c634300081a0033",
			"opcodes": "PUSH1 0x80 PUSH1 0x40 MSTORE CALLVALUE DUP1 ISZERO PUSH1 0xE JUMPI PUSH0 DUP1 REVERT JUMPDEST POP PUSH2 0xF4D DUP1 PUSH2 0x1C PUSH0 CODECOPY PUSH0 RETURN INVALID PUSH1 0x80 PUSH1 0x40 MSTORE CALLVALUE DUP1 ISZERO PUSH2 0xF JUMPI PUSH0 DUP1 REVERT JUMPDEST POP PUSH1 0x4 CALLDATASIZE LT PUSH2 0xCD JUMPI PUSH0 CALLDATALOAD PUSH1 0xE0 SHR DUP1 PUSH4 0x7284E416 GT PUSH2 0x8A JUMPI DUP1 PUSH4 0x98D5FDCA GT PUSH2 0x64 JUMPI DUP1 PUSH4 0x98D5FDCA EQ PUSH2 0x1DB JUMPI DUP1 PUSH4 0xAF640D0F EQ PUSH2 0x1F9 JUMPI DUP1 PUSH4 0xC47F0027 EQ PUSH2 0x217 JUMPI DUP1 PUSH4 0xD0E0BA95 EQ PUSH2 0x233 JUMPI PUSH2 0xCD JUMP JUMPDEST DUP1 PUSH4 0x7284E416 EQ PUSH2 0x185 JUMPI DUP1 PUSH4 0x90C3F38F EQ PUSH2 0x1A3 JUMPI DUP1 PUSH4 0x91B7F5ED EQ PUSH2 0x1BF JUMPI PUSH2 0xCD JUMP JUMPDEST DUP1 PUSH4 0x6FDDE03 EQ PUSH2 0xD1 JUMPI DUP1 PUSH4 0x17D7DE7C EQ PUSH2 0xEF JUMPI DUP1 PUSH4 0x1A092541 EQ PUSH2 0x10D JUMPI DUP1 PUSH4 0x469C5003 EQ PUSH2 0x12B JUMPI DUP1 PUSH4 0x5D1CA631 EQ PUSH2 0x149 JUMPI DUP1 PUSH4 0x6AB55FD9 EQ PUSH2 0x167 JUMPI JUMPDEST PUSH0 DUP1 REVERT JUMPDEST PUSH2 0xD9 PUSH2 0x24F JUMP JUMPDEST PUSH1 0x40 MLOAD PUSH2 0xE6 SWAP2 SWAP1 PUSH2 0x783 JUMP JUMPDEST PUSH1 0x40 MLOAD DUP1 SWAP2 SUB SWAP1 RETURN JUMPDEST PUSH2 0xF7 PUSH2 0x2DB JUMP JUMPDEST PUSH1 0x40 MLOAD PUSH2 0x104 SWAP2 SWAP1 PUSH2 0x783 JUMP JUMPDEST PUSH1 0x40 MLOAD DUP1 SWAP2 SUB SWAP1 RETURN JUMPDEST PUSH2 0x115 PUSH2 0x36B JUMP JUMPDEST PUSH1 0x40 MLOAD PUSH2 0x122 SWAP2 SWAP1 PUSH2 0x783 JUMP JUMPDEST PUSH1 0x40 MLOAD DUP1 SWAP2 SUB SWAP1 RETURN JUMPDEST PUSH2 0x133 PUSH2 0x3FB JUMP JUMPDEST PUSH1 0x40 MLOAD PUSH2 0x140 SWAP2 SWAP1 PUSH2 0x783 JUMP JUMPDEST PUSH1 0x40 MLOAD DUP1 SWAP2 SUB SWAP1 RETURN JUMPDEST PUSH2 0x151 PUSH2 0x4AE JUMP JUMPDEST PUSH1 0x40 MLOAD PUSH2 0x15E SWAP2 SWAP1 PUSH2 0x7BB JUMP JUMPDEST PUSH1 0x40 MLOAD DUP1 SWAP2 SUB SWAP1 RETURN JUMPDEST PUSH2 0x16F PUSH2 0x4B6 JUMP JUMPDEST PUSH1 0x40 MLOAD PUSH2 0x17C SWAP2 SWAP1 PUSH2 0x7BB JUMP JUMPDEST PUSH1 0x40 MLOAD DUP1 SWAP2 SUB SWAP1 RETURN JUMPDEST PUSH2 0x18D PUSH2 0x4C2 JUMP JUMPDEST PUSH1 0x40 MLOAD PUSH2 0x19A SWAP2 SWAP1 PUSH2 0x783 JUMP JUMPDEST PUSH1 0x40 MLOAD DUP1 SWAP2 SUB SWAP1 RETURN JUMPDEST PUSH2 0x1BD PUSH1 0x4 DUP1 CALLDATASIZE SUB DUP2 ADD SWAP1 PUSH2 0x1B8 SWAP2 SWAP1 PUSH2 0x911 JUMP JUMPDEST PUSH2 0x54E JUMP JUMPDEST STOP JUMPDEST PUSH2 0x1D9 PUSH1 0x4 DUP1 CALLDATASIZE SUB DUP2 ADD SWAP1 PUSH2 0x1D4 SWAP2 SWAP1 PUSH2 0x982 JUMP JUMPDEST PUSH2 0x561 JUMP JUMPDEST STOP JUMPDEST PUSH2 0x1E3 PUSH2 0x56B JUMP JUMPDEST PUSH1 0x40 MLOAD PUSH2 0x1F0 SWAP2 SWAP1 PUSH2 0x7BB JUMP JUMPDEST PUSH1 0x40 MLOAD DUP1 SWAP2 SUB SWAP1 RETURN JUMPDEST PUSH2 0x201 PUSH2 0x574 JUMP JUMPDEST PUSH1 0x40 MLOAD PUSH2 0x20E SWAP2 SWAP1 PUSH2 0x7BB JUMP JUMPDEST PUSH1 0x40 MLOAD DUP1 SWAP2 SUB SWAP1 RETURN JUMPDEST PUSH2 0x231 PUSH1 0x4 DUP1 CALLDATASIZE SUB DUP2 ADD SWAP1 PUSH2 0x22C SWAP2 SWAP1 PUSH2 0x911 JUMP JUMPDEST PUSH2 0x579 JUMP JUMPDEST STOP JUMPDEST PUSH2 0x24D PUSH1 0x4 DUP1 CALLDATASIZE SUB DUP2 ADD SWAP1 PUSH2 0x248 SWAP2 SWAP1 PUSH2 0x982 JUMP JUMPDEST PUSH2 0x58C JUMP JUMPDEST STOP JUMPDEST PUSH1 0x1 DUP1 SLOAD PUSH2 0x25C SWAP1 PUSH2 0x9DA JUMP JUMPDEST DUP1 PUSH1 0x1F ADD PUSH1 0x20 DUP1 SWAP2 DIV MUL PUSH1 0x20 ADD PUSH1 0x40 MLOAD SWAP1 DUP2 ADD PUSH1 0x40 MSTORE DUP1 SWAP3 SWAP2 SWAP1 DUP2 DUP2 MSTORE PUSH1 0x20 ADD DUP3 DUP1 SLOAD PUSH2 0x288 SWAP1 PUSH2 0x9DA JUMP JUMPDEST DUP1 ISZERO PUSH2 0x2D3 JUMPI DUP1 PUSH1 0x1F LT PUSH2 0x2AA JUMPI PUSH2 0x100 DUP1 DUP4 SLOAD DIV MUL DUP4 MSTORE SWAP2 PUSH1 0x20 ADD SWAP2 PUSH2 0x2D3 JUMP JUMPDEST DUP3 ADD SWAP2 SWAP1 PUSH0 MSTORE PUSH1 0x20 PUSH0 KECCAK256 SWAP1 JUMPDEST DUP2 SLOAD DUP2 MSTORE SWAP1 PUSH1 0x1 ADD SWAP1 PUSH1 0x20 ADD DUP1 DUP4 GT PUSH2 0x2B6 JUMPI DUP3 SWAP1 SUB PUSH1 0x1F AND DUP3 ADD SWAP2 JUMPDEST POP POP POP POP POP DUP2 JUMP JUMPDEST PUSH1 0x60 PUSH1 0x1 DUP1 SLOAD PUSH2 0x2EA SWAP1 PUSH2 0x9DA JUMP JUMPDEST DUP1 PUSH1 0x1F ADD PUSH1 0x20 DUP1 SWAP2 DIV MUL PUSH1 0x20 ADD PUSH1 0x40 MLOAD SWAP1 DUP2 ADD PUSH1 0x40 MSTORE DUP1 SWAP3 SWAP2 SWAP1 DUP2 DUP2 MSTORE PUSH1 0x20 ADD DUP3 DUP1 SLOAD PUSH2 0x316 SWAP1 PUSH2 0x9DA JUMP JUMPDEST DUP1 ISZERO PUSH2 0x361 JUMPI DUP1 PUSH1 0x1F LT PUSH2 0x338 JUMPI PUSH2 0x100 DUP1 DUP4 SLOAD DIV MUL DUP4 MSTORE SWAP2 PUSH1 0x20 ADD SWAP2 PUSH2 0x361 JUMP JUMPDEST DUP3 ADD SWAP2 SWAP1 PUSH0 MSTORE PUSH1 0x20 PUSH0 KECCAK256 SWAP1 JUMPDEST DUP2 SLOAD DUP2 MSTORE SWAP1 PUSH1 0x1 ADD SWAP1 PUSH1 0x20 ADD DUP1 DUP4 GT PUSH2 0x344 JUMPI DUP3 SWAP1 SUB PUSH1 0x1F AND DUP3 ADD SWAP2 JUMPDEST POP POP POP POP POP SWAP1 POP SWAP1 JUMP JUMPDEST PUSH1 0x60 PUSH1 0x2 DUP1 SLOAD PUSH2 0x37A SWAP1 PUSH2 0x9DA JUMP JUMPDEST DUP1 PUSH1 0x1F ADD PUSH1 0x20 DUP1 SWAP2 DIV MUL PUSH1 0x20 ADD PUSH1 0x40 MLOAD SWAP1 DUP2 ADD PUSH1 0x40 MSTORE DUP1 SWAP3 SWAP2 SWAP1 DUP2 DUP2 MSTORE PUSH1 0x20 ADD DUP3 DUP1 SLOAD PUSH2 0x3A6 SWAP1 PUSH2 0x9DA JUMP JUMPDEST DUP1 ISZERO PUSH2 0x3F1 JUMPI DUP1 PUSH1 0x1F LT PUSH2 0x3C8 JUMPI PUSH2 0x100 DUP1 DUP4 SLOAD DIV MUL DUP4 MSTORE SWAP2 PUSH1 0x20 ADD SWAP2 PUSH2 0x3F1 JUMP JUMPDEST DUP3 ADD SWAP2 SWAP1 PUSH0 MSTORE PUSH1 0x20 PUSH0 KECCAK256 SWAP1 JUMPDEST DUP2 SLOAD DUP2 MSTORE SWAP1 PUSH1 0x1 ADD SWAP1 PUSH1 0x20 ADD DUP1 DUP4 GT PUSH2 0x3D4 JUMPI DUP3 SWAP1 SUB PUSH1 0x1F AND DUP3 ADD SWAP2 JUMPDEST POP POP POP POP POP SWAP1 POP SWAP1 JUMP JUMPDEST PUSH1 0x60 PUSH0 PUSH1 0x64 PUSH1 0x3 SLOAD PUSH2 0x40D SWAP2 SWAP1 PUSH2 0xA64 JUMP JUMPDEST SWAP1 POP PUSH0 PUSH1 0x64 PUSH1 0x3 SLOAD PUSH2 0x41F SWAP2 SWAP1 PUSH2 0xA94 JUMP JUMPDEST SWAP1 POP PUSH2 0x42A DUP3 PUSH2 0x595 JUMP JUMPDEST PUSH1 0xA DUP3 LT PUSH2 0x446 JUMPI PUSH1 0x40 MLOAD DUP1 PUSH1 0x20 ADD PUSH1 0x40 MSTORE DUP1 PUSH0 DUP2 MSTORE POP PUSH2 0x47D JUMP JUMPDEST PUSH1 0x40 MLOAD DUP1 PUSH1 0x40 ADD PUSH1 0x40 MSTORE DUP1 PUSH1 0x1 DUP2 MSTORE PUSH1 0x20 ADD PUSH32 0x3000000000000000000000000000000000000000000000000000000000000000 DUP2 MSTORE POP JUMPDEST PUSH2 0x486 DUP4 PUSH2 0x595 JUMP JUMPDEST PUSH1 0x40 MLOAD PUSH1 0x20 ADD PUSH2 0x498 SWAP4 SWAP3 SWAP2 SWAP1 PUSH2 0xB48 JUMP JUMPDEST PUSH1 0x40 MLOAD PUSH1 0x20 DUP2 DUP4 SUB SUB DUP2 MSTORE SWAP1 PUSH1 0x40 MSTORE SWAP3 POP POP POP SWAP1 JUMP JUMPDEST PUSH0 DUP1 SLOAD SWAP1 POP SWAP1 JUMP JUMPDEST PUSH8 0xDE0B6B3A7640000 DUP2 JUMP JUMPDEST PUSH1 0x2 DUP1 SLOAD PUSH2 0x4CF SWAP1 PUSH2 0x9DA JUMP JUMPDEST DUP1 PUSH1 0x1F ADD PUSH1 0x20 DUP1 SWAP2 DIV MUL PUSH1 0x20 ADD PUSH1 0x40 MLOAD SWAP1 DUP2 ADD PUSH1 0x40 MSTORE DUP1 SWAP3 SWAP2 SWAP1 DUP2 DUP2 MSTORE PUSH1 0x20 ADD DUP3 DUP1 SLOAD PUSH2 0x4FB SWAP1 PUSH2 0x9DA JUMP JUMPDEST DUP1 ISZERO PUSH2 0x546 JUMPI DUP1 PUSH1 0x1F LT PUSH2 0x51D JUMPI PUSH2 0x100 DUP1 DUP4 SLOAD DIV MUL DUP4 MSTORE SWAP2 PUSH1 0x20 ADD SWAP2 PUSH2 0x546 JUMP JUMPDEST DUP3 ADD SWAP2 SWAP1 PUSH0 MSTORE PUSH1 0x20 PUSH0 KECCAK256 SWAP1 JUMPDEST DUP2 SLOAD DUP2 MSTORE SWAP1 PUSH1 0x1 ADD SWAP1 PUSH1 0x20 ADD DUP1 DUP4 GT PUSH2 0x529 JUMPI DUP3 SWAP1 SUB PUSH1 0x1F AND DUP3 ADD SWAP2 JUMPDEST POP POP POP POP POP DUP2 JUMP JUMPDEST DUP1 PUSH1 0x2 SWAP1 DUP2 PUSH2 0x55D SWAP2 SWAP1 PUSH2 0xD20 JUMP JUMPDEST POP POP JUMP JUMPDEST DUP1 PUSH1 0x3 DUP2 SWAP1 SSTORE POP POP JUMP JUMPDEST PUSH0 PUSH1 0x3 SLOAD SWAP1 POP SWAP1 JUMP JUMPDEST PUSH0 SLOAD DUP2 JUMP JUMPDEST DUP1 PUSH1 0x1 SWAP1 DUP2 PUSH2 0x588 SWAP2 SWAP1 PUSH2 0xD20 JUMP JUMPDEST POP POP JUMP JUMPDEST DUP1 PUSH0 DUP2 SWAP1 SSTORE POP POP JUMP JUMPDEST PUSH1 0x60 PUSH0 DUP3 SUB PUSH2 0x5DB JUMPI PUSH1 0x40 MLOAD DUP1 PUSH1 0x40 ADD PUSH1 0x40 MSTORE DUP1 PUSH1 0x1 DUP2 MSTORE PUSH1 0x20 ADD PUSH32 0x3000000000000000000000000000000000000000000000000000000000000000 DUP2 MSTORE POP SWAP1 POP PUSH2 0x70E JUMP JUMPDEST PUSH0 DUP3 SWAP1 POP PUSH0 JUMPDEST PUSH0 DUP3 EQ PUSH2 0x60A JUMPI DUP1 DUP1 PUSH2 0x5F3 SWAP1 PUSH2 0xDEF JUMP JUMPDEST SWAP2 POP POP PUSH1 0xA DUP3 PUSH2 0x603 SWAP2 SWAP1 PUSH2 0xA64 JUMP JUMPDEST SWAP2 POP PUSH2 0x5E1 JUMP JUMPDEST PUSH0 DUP2 PUSH8 0xFFFFFFFFFFFFFFFF DUP2 GT ISZERO PUSH2 0x625 JUMPI PUSH2 0x624 PUSH2 0x7ED JUMP JUMPDEST JUMPDEST PUSH1 0x40 MLOAD SWAP1 DUP1 DUP3 MSTORE DUP1 PUSH1 0x1F ADD PUSH1 0x1F NOT AND PUSH1 0x20 ADD DUP3 ADD PUSH1 0x40 MSTORE DUP1 ISZERO PUSH2 0x657 JUMPI DUP2 PUSH1 0x20 ADD PUSH1 0x1 DUP3 MUL DUP1 CALLDATASIZE DUP4 CALLDATACOPY DUP1 DUP3 ADD SWAP2 POP POP SWAP1 POP JUMPDEST POP SWAP1 POP PUSH0 DUP3 SWAP1 POP JUMPDEST PUSH0 DUP7 EQ PUSH2 0x706 JUMPI PUSH1 0x1 DUP2 PUSH2 0x673 SWAP2 SWAP1 PUSH2 0xE36 JUMP JUMPDEST SWAP1 POP PUSH0 PUSH1 0xA DUP1 DUP9 PUSH2 0x684 SWAP2 SWAP1 PUSH2 0xA64 JUMP JUMPDEST PUSH2 0x68E SWAP2 SWAP1 PUSH2 0xE69 JUMP JUMPDEST DUP8 PUSH2 0x699 SWAP2 SWAP1 PUSH2 0xE36 JUMP JUMPDEST PUSH1 0x30 PUSH2 0x6A5 SWAP2 SWAP1 PUSH2 0xEB6 JUMP JUMPDEST SWAP1 POP PUSH0 DUP2 PUSH1 0xF8 SHL SWAP1 POP DUP1 DUP5 DUP5 DUP2 MLOAD DUP2 LT PUSH2 0x6C2 JUMPI PUSH2 0x6C1 PUSH2 0xEEA JUMP JUMPDEST JUMPDEST PUSH1 0x20 ADD ADD SWAP1 PUSH31 0xFFFFFFFFFFFFFFFFFFFFFFFFFFFFFFFFFFFFFFFFFFFFFFFFFFFFFFFFFFFFFF NOT AND SWAP1 DUP2 PUSH0 BYTE SWAP1 MSTORE8 POP PUSH1 0xA DUP9 PUSH2 0x6FD SWAP2 SWAP1 PUSH2 0xA64 JUMP JUMPDEST SWAP8 POP POP POP PUSH2 0x65F JUMP JUMPDEST DUP2 SWAP5 POP POP POP POP POP JUMPDEST SWAP2 SWAP1 POP JUMP JUMPDEST PUSH0 DUP2 MLOAD SWAP1 POP SWAP2 SWAP1 POP JUMP JUMPDEST PUSH0 DUP3 DUP3 MSTORE PUSH1 0x20 DUP3 ADD SWAP1 POP SWAP3 SWAP2 POP POP JUMP JUMPDEST DUP3 DUP2 DUP4 MCOPY PUSH0 DUP4 DUP4 ADD MSTORE POP POP POP JUMP JUMPDEST PUSH0 PUSH1 0x1F NOT PUSH1 0x1F DUP4 ADD AND SWAP1 POP SWAP2 SWAP1 POP JUMP JUMPDEST PUSH0 PUSH2 0x755 DUP3 PUSH2 0x713 JUMP JUMPDEST PUSH2 0x75F DUP2 DUP6 PUSH2 0x71D JUMP JUMPDEST SWAP4 POP PUSH2 0x76F DUP2 DUP6 PUSH1 0x20 DUP7 ADD PUSH2 0x72D JUMP JUMPDEST PUSH2 0x778 DUP2 PUSH2 0x73B JUMP JUMPDEST DUP5 ADD SWAP2 POP POP SWAP3 SWAP2 POP POP JUMP JUMPDEST PUSH0 PUSH1 0x20 DUP3 ADD SWAP1 POP DUP2 DUP2 SUB PUSH0 DUP4 ADD MSTORE PUSH2 0x79B DUP2 DUP5 PUSH2 0x74B JUMP JUMPDEST SWAP1 POP SWAP3 SWAP2 POP POP JUMP JUMPDEST PUSH0 DUP2 SWAP1 POP SWAP2 SWAP1 POP JUMP JUMPDEST PUSH2 0x7B5 DUP2 PUSH2 0x7A3 JUMP JUMPDEST DUP3 MSTORE POP POP JUMP JUMPDEST PUSH0 PUSH1 0x20 DUP3 ADD SWAP1 POP PUSH2 0x7CE PUSH0 DUP4 ADD DUP5 PUSH2 0x7AC JUMP JUMPDEST SWAP3 SWAP2 POP POP JUMP JUMPDEST PUSH0 PUSH1 0x40 MLOAD SWAP1 POP SWAP1 JUMP JUMPDEST PUSH0 DUP1 REVERT JUMPDEST PUSH0 DUP1 REVERT JUMPDEST PUSH0 DUP1 REVERT JUMPDEST PUSH0 DUP1 REVERT JUMPDEST PUSH32 0x4E487B7100000000000000000000000000000000000000000000000000000000 PUSH0 MSTORE PUSH1 0x41 PUSH1 0x4 MSTORE PUSH1 0x24 PUSH0 REVERT JUMPDEST PUSH2 0x823 DUP3 PUSH2 0x73B JUMP JUMPDEST DUP2 ADD DUP2 DUP2 LT PUSH8 0xFFFFFFFFFFFFFFFF DUP3 GT OR ISZERO PUSH2 0x842 JUMPI PUSH2 0x841 PUSH2 0x7ED JUMP JUMPDEST JUMPDEST DUP1 PUSH1 0x40 MSTORE POP POP POP JUMP JUMPDEST PUSH0 PUSH2 0x854 PUSH2 0x7D4 JUMP JUMPDEST SWAP1 POP PUSH2 0x860 DUP3 DUP3 PUSH2 0x81A JUMP JUMPDEST SWAP2 SWAP1 POP JUMP JUMPDEST PUSH0 PUSH8 0xFFFFFFFFFFFFFFFF DUP3 GT ISZERO PUSH2 0x87F JUMPI PUSH2 0x87E PUSH2 0x7ED JUMP JUMPDEST JUMPDEST PUSH2 0x888 DUP3 PUSH2 0x73B JUMP JUMPDEST SWAP1 POP PUSH1 0x20 DUP2 ADD SWAP1 POP SWAP2 SWAP1 POP JUMP JUMPDEST DUP3 DUP2 DUP4 CALLDATACOPY PUSH0 DUP4 DUP4 ADD MSTORE POP POP POP JUMP JUMPDEST PUSH0 PUSH2 0x8B5 PUSH2 0x8B0 DUP5 PUSH2 0x865 JUMP JUMPDEST PUSH2 0x84B JUMP JUMPDEST SWAP1 POP DUP3 DUP2 MSTORE PUSH1 0x20 DUP2 ADD DUP5 DUP5 DUP5 ADD GT ISZERO PUSH2 0x8D1 JUMPI PUSH2 0x8D0 PUSH2 0x7E9 JUMP JUMPDEST JUMPDEST PUSH2 0x8DC DUP5 DUP3 DUP6 PUSH2 0x895 JUMP JUMPDEST POP SWAP4 SWAP3 POP POP POP JUMP JUMPDEST PUSH0 DUP3 PUSH1 0x1F DUP4 ADD SLT PUSH2 0x8F8 JUMPI PUSH2 0x8F7 PUSH2 0x7E5 JUMP JUMPDEST JUMPDEST DUP2 CALLDATALOAD PUSH2 0x908 DUP5 DUP3 PUSH1 0x20 DUP7 ADD PUSH2 0x8A3 JUMP JUMPDEST SWAP2 POP POP SWAP3 SWAP2 POP POP JUMP JUMPDEST PUSH0 PUSH1 0x20 DUP3 DUP5 SUB SLT ISZERO PUSH2 0x926 JUMPI PUSH2 0x925 PUSH2 0x7DD JUMP JUMPDEST JUMPDEST PUSH0 DUP3 ADD CALLDATALOAD PUSH8 0xFFFFFFFFFFFFFFFF DUP2 GT ISZERO PUSH2 0x943 JUMPI PUSH2 0x942 PUSH2 0x7E1 JUMP JUMPDEST JUMPDEST PUSH2 0x94F DUP5 DUP3 DUP6 ADD PUSH2 0x8E4 JUMP JUMPDEST SWAP2 POP POP SWAP3 SWAP2 POP POP JUMP JUMPDEST PUSH2 0x961 DUP2 PUSH2 0x7A3 JUMP JUMPDEST DUP2 EQ PUSH2 0x96B JUMPI PUSH0 DUP1 REVERT JUMPDEST POP JUMP JUMPDEST PUSH0 DUP2 CALLDATALOAD SWAP1 POP PUSH2 0x97C DUP2 PUSH2 0x958 JUMP JUMPDEST SWAP3 SWAP2 POP POP JUMP JUMPDEST PUSH0 PUSH1 0x20 DUP3 DUP5 SUB SLT ISZERO PUSH2 0x997 JUMPI PUSH2 0x996 PUSH2 0x7DD JUMP JUMPDEST JUMPDEST PUSH0 PUSH2 0x9A4 DUP5 DUP3 DUP6 ADD PUSH2 0x96E JUMP JUMPDEST SWAP2 POP POP SWAP3 SWAP2 POP POP JUMP JUMPDEST PUSH32 0x4E487B7100000000000000000000000000000000000000000000000000000000 PUSH0 MSTORE PUSH1 0x22 PUSH1 0x4 MSTORE PUSH1 0x24 PUSH0 REVERT JUMPDEST PUSH0 PUSH1 0x2 DUP3 DIV SWAP1 POP PUSH1 0x1 DUP3 AND DUP1 PUSH2 0x9F1 JUMPI PUSH1 0x7F DUP3 AND SWAP2 POP JUMPDEST PUSH1 0x20 DUP3 LT DUP2 SUB PUSH2 0xA04 JUMPI PUSH2 0xA03 PUSH2 0x9AD JUMP JUMPDEST JUMPDEST POP SWAP2 SWAP1 POP JUMP JUMPDEST PUSH32 0x4E487B7100000000000000000000000000000000000000000000000000000000 PUSH0 MSTORE PUSH1 0x12 PUSH1 0x4 MSTORE PUSH1 0x24 PUSH0 REVERT JUMPDEST PUSH32 0x4E487B7100000000000000000000000000000000000000000000000000000000 PUSH0 MSTORE PUSH1 0x11 PUSH1 0x4 MSTORE PUSH1 0x24 PUSH0 REVERT JUMPDEST PUSH0 PUSH2 0xA6E DUP3 PUSH2 0x7A3 JUMP JUMPDEST SWAP2 POP PUSH2 0xA79 DUP4 PUSH2 0x7A3 JUMP JUMPDEST SWAP3 POP DUP3 PUSH2 0xA89 JUMPI PUSH2 0xA88 PUSH2 0xA0A JUMP JUMPDEST JUMPDEST DUP3 DUP3 DIV SWAP1 POP SWAP3 SWAP2 POP POP JUMP JUMPDEST PUSH0 PUSH2 0xA9E DUP3 PUSH2 0x7A3 JUMP JUMPDEST SWAP2 POP PUSH2 0xAA9 DUP4 PUSH2 0x7A3 JUMP JUMPDEST SWAP3 POP DUP3 PUSH2 0xAB9 JUMPI PUSH2 0xAB8 PUSH2 0xA0A JUMP JUMPDEST JUMPDEST DUP3 DUP3 MOD SWAP1 POP SWAP3 SWAP2 POP POP JUMP JUMPDEST PUSH0 DUP2 SWAP1 POP SWAP3 SWAP2 POP POP JUMP JUMPDEST PUSH0 PUSH2 0xAD8 DUP3 PUSH2 0x713 JUMP JUMPDEST PUSH2 0xAE2 DUP2 DUP6 PUSH2 0xAC4 JUMP JUMPDEST SWAP4 POP PUSH2 0xAF2 DUP2 DUP6 PUSH1 0x20 DUP7 ADD PUSH2 0x72D JUMP JUMPDEST DUP1 DUP5 ADD SWAP2 POP POP SWAP3 SWAP2 POP POP JUMP JUMPDEST PUSH32 0x2E00000000000000000000000000000000000000000000000000000000000000 PUSH0 DUP3 ADD MSTORE POP JUMP JUMPDEST PUSH0 PUSH2 0xB32 PUSH1 0x1 DUP4 PUSH2 0xAC4 JUMP JUMPDEST SWAP2 POP PUSH2 0xB3D DUP3 PUSH2 0xAFE JUMP JUMPDEST PUSH1 0x1 DUP3 ADD SWAP1 POP SWAP2 SWAP1 POP JUMP JUMPDEST PUSH0 PUSH2 0xB53 DUP3 DUP7 PUSH2 0xACE JUMP JUMPDEST SWAP2 POP PUSH2 0xB5E DUP3 PUSH2 0xB26 JUMP JUMPDEST SWAP2 POP PUSH2 0xB6A DUP3 DUP6 PUSH2 0xACE JUMP JUMPDEST SWAP2 POP PUSH2 0xB76 DUP3 DUP5 PUSH2 0xACE JUMP JUMPDEST SWAP2 POP DUP2 SWAP1 POP SWAP5 SWAP4 POP POP POP POP JUMP JUMPDEST PUSH0 DUP2 SWAP1 POP DUP2 PUSH0 MSTORE PUSH1 0x20 PUSH0 KECCAK256 SWAP1 POP SWAP2 SWAP1 POP JUMP JUMPDEST PUSH0 PUSH1 0x20 PUSH1 0x1F DUP4 ADD DIV SWAP1 POP SWAP2 SWAP1 POP JUMP JUMPDEST PUSH0 DUP3 DUP3 SHL SWAP1 POP SWAP3 SWAP2 POP POP JUMP JUMPDEST PUSH0 PUSH1 0x8 DUP4 MUL PUSH2 0xBDF PUSH32 0xFFFFFFFFFFFFFFFFFFFFFFFFFFFFFFFFFFFFFFFFFFFFFFFFFFFFFFFFFFFFFFFF DUP3 PUSH2 0xBA4 JUMP JUMPDEST PUSH2 0xBE9 DUP7 DUP4 PUSH2 0xBA4 JUMP JUMPDEST SWAP6 POP DUP1 NOT DUP5 AND SWAP4 POP DUP1 DUP7 AND DUP5 OR SWAP3 POP POP POP SWAP4 SWAP3 POP POP POP JUMP JUMPDEST PUSH0 DUP2 SWAP1 POP SWAP2 SWAP1 POP JUMP JUMPDEST PUSH0 PUSH2 0xC24 PUSH2 0xC1F PUSH2 0xC1A DUP5 PUSH2 0x7A3 JUMP JUMPDEST PUSH2 0xC01 JUMP JUMPDEST PUSH2 0x7A3 JUMP JUMPDEST SWAP1 POP SWAP2 SWAP1 POP JUMP JUMPDEST PUSH0 DUP2 SWAP1 POP SWAP2 SWAP1 POP JUMP JUMPDEST PUSH2 0xC3D DUP4 PUSH2 0xC0A JUMP JUMPDEST PUSH2 0xC51 PUSH2 0xC49 DUP3 PUSH2 0xC2B JUMP JUMPDEST DUP5 DUP5 SLOAD PUSH2 0xBB0 JUMP JUMPDEST DUP3 SSTORE POP POP POP POP JUMP JUMPDEST PUSH0 SWAP1 JUMP JUMPDEST PUSH2 0xC65 PUSH2 0xC59 JUMP JUMPDEST PUSH2 0xC70 DUP2 DUP5 DUP5 PUSH2 0xC34 JUMP JUMPDEST POP POP POP JUMP JUMPDEST JUMPDEST DUP2 DUP2 LT ISZERO PUSH2 0xC93 JUMPI PUSH2 0xC88 PUSH0 DUP3 PUSH2 0xC5D JUMP JUMPDEST PUSH1 0x1 DUP2 ADD SWAP1 POP PUSH2 0xC76 JUMP JUMPDEST POP POP JUMP JUMPDEST PUSH1 0x1F DUP3 GT ISZERO PUSH2 0xCD8 JUMPI PUSH2 0xCA9 DUP2 PUSH2 0xB83 JUMP JUMPDEST PUSH2 0xCB2 DUP5 PUSH2 0xB95 JUMP JUMPDEST DUP2 ADD PUSH1 0x20 DUP6 LT ISZERO PUSH2 0xCC1 JUMPI DUP2 SWAP1 POP JUMPDEST PUSH2 0xCD5 PUSH2 0xCCD DUP6 PUSH2 0xB95 JUMP JUMPDEST DUP4 ADD DUP3 PUSH2 0xC75 JUMP JUMPDEST POP POP JUMPDEST POP POP POP JUMP JUMPDEST PUSH0 DUP3 DUP3 SHR SWAP1 POP SWAP3 SWAP2 POP POP JUMP JUMPDEST PUSH0 PUSH2 0xCF8 PUSH0 NOT DUP5 PUSH1 0x8 MUL PUSH2 0xCDD JUMP JUMPDEST NOT DUP1 DUP4 AND SWAP2 POP POP SWAP3 SWAP2 POP POP JUMP JUMPDEST PUSH0 PUSH2 0xD10 DUP4 DUP4 PUSH2 0xCE9 JUMP JUMPDEST SWAP2 POP DUP3 PUSH1 0x2 MUL DUP3 OR SWAP1 POP SWAP3 SWAP2 POP POP JUMP JUMPDEST PUSH2 0xD29 DUP3 PUSH2 0x713 JUMP JUMPDEST PUSH8 0xFFFFFFFFFFFFFFFF DUP2 GT ISZERO PUSH2 0xD42 JUMPI PUSH2 0xD41 PUSH2 0x7ED JUMP JUMPDEST JUMPDEST PUSH2 0xD4C DUP3 SLOAD PUSH2 0x9DA JUMP JUMPDEST PUSH2 0xD57 DUP3 DUP3 DUP6 PUSH2 0xC97 JUMP JUMPDEST PUSH0 PUSH1 0x20 SWAP1 POP PUSH1 0x1F DUP4 GT PUSH1 0x1 DUP2 EQ PUSH2 0xD88 JUMPI PUSH0 DUP5 ISZERO PUSH2 0xD76 JUMPI DUP3 DUP8 ADD MLOAD SWAP1 POP JUMPDEST PUSH2 0xD80 DUP6 DUP3 PUSH2 0xD05 JUMP JUMPDEST DUP7 SSTORE POP PUSH2 0xDE7 JUMP JUMPDEST PUSH1 0x1F NOT DUP5 AND PUSH2 0xD96 DUP7 PUSH2 0xB83 JUMP JUMPDEST PUSH0 JUMPDEST DUP3 DUP2 LT ISZERO PUSH2 0xDBD JUMPI DUP5 DUP10 ADD MLOAD DUP3 SSTORE PUSH1 0x1 DUP3 ADD SWAP2 POP PUSH1 0x20 DUP6 ADD SWAP5 POP PUSH1 0x20 DUP2 ADD SWAP1 POP PUSH2 0xD98 JUMP JUMPDEST DUP7 DUP4 LT ISZERO PUSH2 0xDDA JUMPI DUP5 DUP10 ADD MLOAD PUSH2 0xDD6 PUSH1 0x1F DUP10 AND DUP3 PUSH2 0xCE9 JUMP JUMPDEST DUP4 SSTORE POP JUMPDEST PUSH1 0x1 PUSH1 0x2 DUP9 MUL ADD DUP9 SSTORE POP POP POP JUMPDEST POP POP POP POP POP POP JUMP JUMPDEST PUSH0 PUSH2 0xDF9 DUP3 PUSH2 0x7A3 JUMP JUMPDEST SWAP2 POP PUSH32 0xFFFFFFFFFFFFFFFFFFFFFFFFFFFFFFFFFFFFFFFFFFFFFFFFFFFFFFFFFFFFFFFF DUP3 SUB PUSH2 0xE2B JUMPI PUSH2 0xE2A PUSH2 0xA37 JUMP JUMPDEST JUMPDEST PUSH1 0x1 DUP3 ADD SWAP1 POP SWAP2 SWAP1 POP JUMP JUMPDEST PUSH0 PUSH2 0xE40 DUP3 PUSH2 0x7A3 JUMP JUMPDEST SWAP2 POP PUSH2 0xE4B DUP4 PUSH2 0x7A3 JUMP JUMPDEST SWAP3 POP DUP3 DUP3 SUB SWAP1 POP DUP2 DUP2 GT ISZERO PUSH2 0xE63 JUMPI PUSH2 0xE62 PUSH2 0xA37 JUMP JUMPDEST JUMPDEST SWAP3 SWAP2 POP POP JUMP JUMPDEST PUSH0 PUSH2 0xE73 DUP3 PUSH2 0x7A3 JUMP JUMPDEST SWAP2 POP PUSH2 0xE7E DUP4 PUSH2 0x7A3 JUMP JUMPDEST SWAP3 POP DUP3 DUP3 MUL PUSH2 0xE8C DUP2 PUSH2 0x7A3 JUMP JUMPDEST SWAP2 POP DUP3 DUP3 DIV DUP5 EQ DUP4 ISZERO OR PUSH2 0xEA3 JUMPI PUSH2 0xEA2 PUSH2 0xA37 JUMP JUMPDEST JUMPDEST POP SWAP3 SWAP2 POP POP JUMP JUMPDEST PUSH0 PUSH1 0xFF DUP3 AND SWAP1 POP SWAP2 SWAP1 POP JUMP JUMPDEST PUSH0 PUSH2 0xEC0 DUP3 PUSH2 0xEAA JUMP JUMPDEST SWAP2 POP PUSH2 0xECB DUP4 PUSH2 0xEAA JUMP JUMPDEST SWAP3 POP DUP3 DUP3 ADD SWAP1 POP PUSH1 0xFF DUP2 GT ISZERO PUSH2 0xEE4 JUMPI PUSH2 0xEE3 PUSH2 0xA37 JUMP JUMPDEST JUMPDEST SWAP3 SWAP2 POP POP JUMP JUMPDEST PUSH32 0x4E487B7100000000000000000000000000000000000000000000000000000000 PUSH0 MSTORE PUSH1 0x32 PUSH1 0x4 MSTORE PUSH1 0x24 PUSH0 REVERT INVALID LOG2 PUSH5 0x6970667358 0x22 SLT KECCAK256 CALL PUSH0 MULMOD EXTCODESIZE LOG0 0xA9 0xAE PUSH32 0xB4F08E9BBB0FA76F0F6AEB6F275BB834D4348AB564DDDBF164736F6C63430008 BYTE STOP CALLER "
		},
		"gasEstimates": {
			"creation": {
				"codeDepositCost": "783400",
				"executionCost": "816",
				"totalCost": "784216"
			},
			"external": {
				"DECIMAL()": "436",
				"description()": "infinite",
				"getDescription()": "infinite",
				"getId()": "2521",
				"getName()": "infinite",
				"getPrice()": "2454",
				"getPriceFormatted()": "infinite",
				"id()": "2468",
				"name()": "infinite",
				"setDescription(string)": "infinite",
				"setId(uint256)": "22602",
				"setName(string)": "infinite",
				"setPrice(uint256)": "22582"
			},
			"internal": {
				"uintToStr(uint256)": "infinite"
			}
		},
		"methodIdentifiers": {
			"DECIMAL()": "6ab55fd9",
			"description()": "7284e416",
			"getDescription()": "1a092541",
			"getId()": "5d1ca631",
			"getName()": "17d7de7c",
			"getPrice()": "98d5fdca",
			"getPriceFormatted()": "469c5003",
			"id()": "af640d0f",
			"name()": "06fdde03",
			"setDescription(string)": "90c3f38f",
			"setId(uint256)": "d0e0ba95",
			"setName(string)": "c47f0027",
			"setPrice(uint256)": "91b7f5ed"
		}
	},
	"abi": [
		{
			"inputs": [],
			"name": "DECIMAL",
			"outputs": [
				{
					"internalType": "uint256",
					"name": "",
					"type": "uint256"
				}
			],
			"stateMutability": "view",
			"type": "function"
		},
		{
			"inputs": [],
			"name": "description",
			"outputs": [
				{
					"internalType": "string",
					"name": "",
					"type": "string"
				}
			],
			"stateMutability": "view",
			"type": "function"
		},
		{
			"inputs": [],
			"name": "getDescription",
			"outputs": [
				{
					"internalType": "string",
					"name": "",
					"type": "string"
				}
			],
			"stateMutability": "view",
			"type": "function"
		},
		{
			"inputs": [],
			"name": "getId",
			"outputs": [
				{
					"internalType": "uint256",
					"name": "",
					"type": "uint256"
				}
			],
			"stateMutability": "view",
			"type": "function"
		},
		{
			"inputs": [],
			"name": "getName",
			"outputs": [
				{
					"internalType": "string",
					"name": "",
					"type": "string"
				}
			],
			"stateMutability": "view",
			"type": "function"
		},
		{
			"inputs": [],
			"name": "getPrice",
			"outputs": [
				{
					"internalType": "uint256",
					"name": "",
					"type": "uint256"
				}
			],
			"stateMutability": "view",
			"type": "function"
		},
		{
			"inputs": [],
			"name": "getPriceFormatted",
			"outputs": [
				{
					"internalType": "string",
					"name": "",
					"type": "string"
				}
			],
			"stateMutability": "view",
			"type": "function"
		},
		{
			"inputs": [],
			"name": "id",
			"outputs": [
				{
					"internalType": "uint256",
					"name": "",
					"type": "uint256"
				}
			],
			"stateMutability": "view",
			"type": "function"
		},
		{
			"inputs": [],
			"name": "name",
			"outputs": [
				{
					"internalType": "string",
					"name": "",
					"type": "string"
				}
			],
			"stateMutability": "view",
			"type": "function"
		},
		{
			"inputs": [
				{
					"internalType": "string",
					"name": "_description",
					"type": "string"
				}
			],
			"name": "setDescription",
			"outputs": [],
			"stateMutability": "nonpayable",
			"type": "function"
		},
		{
			"inputs": [
				{
					"internalType": "uint256",
					"name": "_id",
					"type": "uint256"
				}
			],
			"name": "setId",
			"outputs": [],
			"stateMutability": "nonpayable",
			"type": "function"
		},
		{
			"inputs": [
				{
					"internalType": "string",
					"name": "_name",
					"type": "string"
				}
			],
			"name": "setName",
			"outputs": [],
			"stateMutability": "nonpayable",
			"type": "function"
		},
		{
			"inputs": [
				{
					"internalType": "uint256",
					"name": "_priceInCents",
					"type": "uint256"
				}
			],
			"name": "setPrice",
			"outputs": [],
			"stateMutability": "nonpayable",
			"type": "function"
		}
	]
}